{
  "contractName": "CoinFlip",
  "abi": [
    {
      "anonymous": false,
      "inputs": [
        {
          "indexed": false,
          "internalType": "address",
          "name": "player",
          "type": "address"
        },
        {
          "indexed": false,
          "internalType": "bool",
          "name": "result",
          "type": "bool"
        }
      ],
      "name": "flipResult",
      "type": "event"
    },
    {
      "constant": true,
      "inputs": [],
      "name": "contractBalance",
      "outputs": [
        {
          "internalType": "uint256",
          "name": "",
          "type": "uint256"
        }
      ],
      "payable": false,
      "stateMutability": "view",
      "type": "function"
    },
    {
      "constant": false,
      "inputs": [
        {
          "internalType": "uint256",
          "name": "mocked_time",
          "type": "uint256"
        }
      ],
      "name": "freeze_time",
      "outputs": [],
      "payable": false,
      "stateMutability": "nonpayable",
      "type": "function"
    },
    {
      "constant": true,
      "inputs": [],
      "name": "owner",
      "outputs": [
        {
          "internalType": "address",
          "name": "",
          "type": "address"
        }
      ],
      "payable": false,
      "stateMutability": "view",
      "type": "function"
    },
    {
      "constant": false,
      "inputs": [],
      "name": "test_mode",
      "outputs": [],
      "payable": false,
      "stateMutability": "nonpayable",
      "type": "function"
    },
    {
      "constant": false,
      "inputs": [],
      "name": "unfreeze_time",
      "outputs": [],
      "payable": false,
      "stateMutability": "nonpayable",
      "type": "function"
    },
    {
      "constant": false,
      "inputs": [],
      "name": "flip",
      "outputs": [],
      "payable": true,
      "stateMutability": "payable",
      "type": "function"
    },
    {
      "constant": false,
      "inputs": [],
      "name": "stake",
      "outputs": [],
      "payable": true,
      "stateMutability": "payable",
      "type": "function"
    },
    {
      "constant": false,
      "inputs": [
        {
          "internalType": "bytes32",
          "name": "_myid",
          "type": "bytes32"
        },
        {
          "internalType": "string",
          "name": "_result",
          "type": "string"
        }
      ],
      "name": "__callback",
      "outputs": [],
      "payable": false,
      "stateMutability": "nonpayable",
      "type": "function"
    },
    {
      "constant": false,
      "inputs": [
        {
          "internalType": "bytes32",
          "name": "_queryId",
          "type": "bytes32"
        },
        {
          "internalType": "string",
          "name": "_result",
          "type": "string"
        },
        {
          "internalType": "bytes",
          "name": "_proof",
          "type": "bytes"
        }
      ],
      "name": "__callback",
      "outputs": [],
      "payable": false,
      "stateMutability": "nonpayable",
      "type": "function"
    },
    {
      "constant": false,
      "inputs": [],
      "name": "destroyContract",
      "outputs": [],
      "payable": false,
      "stateMutability": "nonpayable",
      "type": "function"
    }
  ],
  "bytecode": "0x6080604052336000806101000a81548173ffffffffffffffffffffffffffffffffffffffff021916908373ffffffffffffffffffffffffffffffffffffffff1602179055506126f3806100536000396000f3fe6080604052600436106100915760003560e01c80638da5cb5b116100595780638da5cb5b1461031d578063c2000d5914610374578063c59298311461038b578063c8090999146103c6578063cde4efa9146103dd57610091565b8063092a5cce1461009657806327dc297e146100ad57806338bbfa501461017f5780633a4b66f1146102e85780638b7afe2e146102f2575b600080fd5b3480156100a257600080fd5b506100ab6103e7565b005b3480156100b957600080fd5b5061017d600480360360408110156100d057600080fd5b8101908080359060200190929190803590602001906401000000008111156100f757600080fd5b82018360208201111561010957600080fd5b8035906020019184600183028401116401000000008311171561012b57600080fd5b91908080601f016020809104026020016040519081016040528093929190818152602001838380828437600081840152601f19601f820116905080830192505050505050509192919290505050610459565b005b34801561018b57600080fd5b506102e6600480360360608110156101a257600080fd5b8101908080359060200190929190803590602001906401000000008111156101c957600080fd5b8201836020820111156101db57600080fd5b803590602001918460018302840111640100000000831117156101fd57600080fd5b91908080601f016020809104026020016040519081016040528093929190818152602001838380828437600081840152601f19601f8201169050808301925050505050505091929192908035906020019064010000000081111561026057600080fd5b82018360208201111561027257600080fd5b8035906020019184600183028401116401000000008311171561029457600080fd5b91908080601f016020809104026020016040519081016040528093929190818152602001838380828437600081840152601f19601f82011690508083019250505050505050919291929050505061049c565b005b6102f0610703565b005b3480156102fe57600080fd5b50610307610715565b6040518082815260200191505060405180910390f35b34801561032957600080fd5b5061033261071b565b604051808273ffffffffffffffffffffffffffffffffffffffff1673ffffffffffffffffffffffffffffffffffffffff16815260200191505060405180910390f35b34801561038057600080fd5b50610389610740565b005b34801561039757600080fd5b506103c4600480360360208110156103ae57600080fd5b810190808035906020019092919050505061075d565b005b3480156103d257600080fd5b506103db610767565b005b6103e5610771565b005b6000809054906101000a900473ffffffffffffffffffffffffffffffffffffffff1673ffffffffffffffffffffffffffffffffffffffff163373ffffffffffffffffffffffffffffffffffffffff161461044057600080fd5b3373ffffffffffffffffffffffffffffffffffffffff16ff5b610498828260006040519080825280601f01601f1916602001820160405280156104925781602001600182028038833980820191505090505b5061049c565b5050565b60006002836040516020018082805190602001908083835b602083106104d757805182526020820191506020810190506020830392506104b4565b6001836020036101000a0380198251168184511680821785525050505050509050019150506040516020818303038152906040528051906020012060001c8161051c57fe5b06905060018114156105e9576008600085815260200190815260200160002060000160009054906101000a900473ffffffffffffffffffffffffffffffffffffffff1673ffffffffffffffffffffffffffffffffffffffff166108fc60026008600088815260200190815260200160002060010154029081150290604051600060405180830381858888f193505050501580156105bd573d6000803e3d6000fd5b506008600085815260200190815260200160002060010154600760008282540392505081905550610610565b60086000858152602001908152602001600020600101546007600082825401925050819055505b7fc212ccd4f44e3c5bfbcc44b7b2f61ff2089badd041c6c98b2acdecfeff1b116b6008600086815260200190815260200160002060000160009054906101000a900473ffffffffffffffffffffffffffffffffffffffff1660018314604051808373ffffffffffffffffffffffffffffffffffffffff1673ffffffffffffffffffffffffffffffffffffffff168152602001821515151581526020019250505060405180910390a160086000858152602001908152602001600020600080820160006101000a81549073ffffffffffffffffffffffffffffffffffffffff02191690556001820160009055505050505050565b34600760008282540192505081905550565b60075481565b6000809054906101000a900473ffffffffffffffffffffffffffffffffffffffff1681565b6001600260006101000a81548160ff021916908315150217905550565b8060018190555050565b6000600181905550565b64e8d4a510008034101561078457600080fd5b600754341061079257600080fd5b6000600260009054906101000a900460ff16156107b8576107b161087a565b90506107c3565b6107c06109cb565b90505b6107cb6125a8565b33816000019073ffffffffffffffffffffffffffffffffffffffff16908173ffffffffffffffffffffffffffffffffffffffff168152505034816020018181525050806008600084815260200190815260200160002060008201518160000160006101000a81548173ffffffffffffffffffffffffffffffffffffffff021916908373ffffffffffffffffffffffffffffffffffffffff16021790555060208201518160010155905050505050565b60008033604051602001808273ffffffffffffffffffffffffffffffffffffffff1673ffffffffffffffffffffffffffffffffffffffff1660601b8152601401915050604051602081830303815290604052805190602001209050600060026108e16109ed565b816108e857fe5b069050606060018214610930576040518060400160405280600181526020017f3000000000000000000000000000000000000000000000000000000000000000815250610967565b6040518060400160405280600181526020017f31000000000000000000000000000000000000000000000000000000000000008152505b90506109c2838233604051602001808273ffffffffffffffffffffffffffffffffffffffff1673ffffffffffffffffffffffffffffffffffffffff1660601b815260140191505060405160208183030381529060405261049c565b82935050505090565b60008060009050600062030d4090506109e682600183610a07565b9250505090565b600080600154116109fe5742610a02565b6001545b905090565b60008083118015610a19575060208311155b610a2257600080fd5b600a84029350606060016040519080825280601f01601f191660200182016040528015610a5e5781602001600182028038833980820191505090505b5090508360f81b81600081518110610a7257fe5b60200101907effffffffffffffffffffffffffffffffffffffffffffffffffffffffffffff1916908160001a905350606060206040519080825280601f01601f191660200182016040528015610ad75781602001600182028038833980820191505090505b509050606060206040519080825280601f01601f191660200182016040528015610b105781602001600182028038833980820191505090505b5090506000610b1d610fa2565b905060208352424118600143034018602084015260208252806020830152606060206040519080825280601f01601f191660200182016040528015610b715781602001600182028038833980820191505090505b509050886020820152606060086040519080825280601f01601f191660200182016040528015610bb05781602001600182028038833980820191505090505b509050610bc382601860088460006112c2565b50610bcc6125d8565b60405180608001604052808781526020018881526020018681526020018481525090506000610c316040518060400160405280600681526020017f72616e646f6d0000000000000000000000000000000000000000000000000000815250838c611321565b9050606060086040519080825280601f01601f191660200182016040528015610c695781602001600182028038833980820191505090505b50905060208401517f0100000000000000000000000000000000000000000000000000000000000000810460278301537e01000000000000000000000000000000000000000000000000000000000000810460268301537d010000000000000000000000000000000000000000000000000000000000810460258301537c0100000000000000000000000000000000000000000000000000000000810460248301537b01000000000000000000000000000000000000000000000000000000810460238301537a010000000000000000000000000000000000000000000000000000810460228301537901000000000000000000000000000000000000000000000000008104602183015378010000000000000000000000000000000000000000000000008104602083015350610f8f828285600160048110610da857fe5b6020020151600287600060048110610dbc57fe5b60200201516040518082805190602001908083835b60208310610df45780518252602082019150602081019050602083039250610dd1565b6001836020036101000a038019825116818451168082178552505050505050905001915050602060405180830381855afa158015610e36573d6000803e3d6000fd5b5050506040513d6020811015610e4b57600080fd5b810190808051906020019092919050505087600260048110610e6957fe5b60200201516040516020018085805190602001908083835b60208310610ea45780518252602082019150602081019050602083039250610e81565b6001836020036101000a03801982511681845116808217855250505050505090500184805190602001908083835b60208310610ef55780518252602082019150602081019050602083039250610ed2565b6001836020036101000a03801982511681845116808217855250505050505090500183815260200182805190602001908083835b60208310610f4c5780518252602082019150602081019050602083039250610f29565b6001836020036101000a03801982511681845116808217855250505050505090500194505050505060405160208183030381529060405280519060200120611690565b8199505050505050505050509392505050565b60008073ffffffffffffffffffffffffffffffffffffffff16600360009054906101000a900473ffffffffffffffffffffffffffffffffffffffff1673ffffffffffffffffffffffffffffffffffffffff16148061102a57506000611028600360009054906101000a900473ffffffffffffffffffffffffffffffffffffffff166116ac565b145b1561103b5761103960006116b7565b505b600360009054906101000a900473ffffffffffffffffffffffffffffffffffffffff1673ffffffffffffffffffffffffffffffffffffffff166338cc48316040518163ffffffff1660e01b8152600401602060405180830381600087803b1580156110a557600080fd5b505af11580156110b9573d6000803e3d6000fd5b505050506040513d60208110156110cf57600080fd5b810190808051906020019092919050505073ffffffffffffffffffffffffffffffffffffffff16600260019054906101000a900473ffffffffffffffffffffffffffffffffffffffff1673ffffffffffffffffffffffffffffffffffffffff161461121a57600360009054906101000a900473ffffffffffffffffffffffffffffffffffffffff1673ffffffffffffffffffffffffffffffffffffffff166338cc48316040518163ffffffff1660e01b8152600401602060405180830381600087803b15801561119e57600080fd5b505af11580156111b2573d6000803e3d6000fd5b505050506040513d60208110156111c857600080fd5b8101908080519060200190929190505050600260016101000a81548173ffffffffffffffffffffffffffffffffffffffff021916908373ffffffffffffffffffffffffffffffffffffffff1602179055505b600260019054906101000a900473ffffffffffffffffffffffffffffffffffffffff1673ffffffffffffffffffffffffffffffffffffffff1663abaa5f3e6040518163ffffffff1660e01b815260040160206040518083038186803b15801561128257600080fd5b505afa158015611296573d6000803e3d6000fd5b505050506040513d60208110156112ac57600080fd5b8101908080519060200190929190505050905090565b60606000828501905080845110156112d957600080fd5b600086602001905060008460200190505b86886020010182101561131257818901518082880152506020820191506020810190506112ea565b85935050505095945050505050565b60008073ffffffffffffffffffffffffffffffffffffffff16600360009054906101000a900473ffffffffffffffffffffffffffffffffffffffff1673ffffffffffffffffffffffffffffffffffffffff1614806113a9575060006113a7600360009054906101000a900473ffffffffffffffffffffffffffffffffffffffff166116ac565b145b156113ba576113b860006116b7565b505b600360009054906101000a900473ffffffffffffffffffffffffffffffffffffffff1673ffffffffffffffffffffffffffffffffffffffff166338cc48316040518163ffffffff1660e01b8152600401602060405180830381600087803b15801561142457600080fd5b505af1158015611438573d6000803e3d6000fd5b505050506040513d602081101561144e57600080fd5b810190808051906020019092919050505073ffffffffffffffffffffffffffffffffffffffff16600260019054906101000a900473ffffffffffffffffffffffffffffffffffffffff1673ffffffffffffffffffffffffffffffffffffffff161461159957600360009054906101000a900473ffffffffffffffffffffffffffffffffffffffff1673ffffffffffffffffffffffffffffffffffffffff166338cc48316040518163ffffffff1660e01b8152600401602060405180830381600087803b15801561151d57600080fd5b505af1158015611531573d6000803e3d6000fd5b505050506040513d602081101561154757600080fd5b8101908080519060200190929190505050600260016101000a81548173ffffffffffffffffffffffffffffffffffffffff021916908373ffffffffffffffffffffffffffffffffffffffff1602179055505b606060046040519080825280602002602001820160405280156115d057816020015b60608152602001906001900390816115bb5790505b509050836000600481106115e057fe5b6020020151816000815181106115f257fe5b60200260200101819052508360016004811061160a57fe5b60200201518160018151811061161c57fe5b60200260200101819052508360026004811061163457fe5b60200201518160028151811061164657fe5b60200260200101819052508360036004811061165e57fe5b60200201518160038151811061167057fe5b60200260200101819052506116868582856116c8565b9150509392505050565b8060056000848152602001908152602001600020819055505050565b6000813b9050919050565b60006116c1611c2e565b9050919050565b60008073ffffffffffffffffffffffffffffffffffffffff16600360009054906101000a900473ffffffffffffffffffffffffffffffffffffffff1673ffffffffffffffffffffffffffffffffffffffff1614806117505750600061174e600360009054906101000a900473ffffffffffffffffffffffffffffffffffffffff166116ac565b145b156117615761175f60006116b7565b505b600360009054906101000a900473ffffffffffffffffffffffffffffffffffffffff1673ffffffffffffffffffffffffffffffffffffffff166338cc48316040518163ffffffff1660e01b8152600401602060405180830381600087803b1580156117cb57600080fd5b505af11580156117df573d6000803e3d6000fd5b505050506040513d60208110156117f557600080fd5b810190808051906020019092919050505073ffffffffffffffffffffffffffffffffffffffff16600260019054906101000a900473ffffffffffffffffffffffffffffffffffffffff1673ffffffffffffffffffffffffffffffffffffffff161461194057600360009054906101000a900473ffffffffffffffffffffffffffffffffffffffff1673ffffffffffffffffffffffffffffffffffffffff166338cc48316040518163ffffffff1660e01b8152600401602060405180830381600087803b1580156118c457600080fd5b505af11580156118d8573d6000803e3d6000fd5b505050506040513d60208110156118ee57600080fd5b8101908080519060200190929190505050600260016101000a81548173ffffffffffffffffffffffffffffffffffffffff021916908373ffffffffffffffffffffffffffffffffffffffff1602179055505b6000600260019054906101000a900473ffffffffffffffffffffffffffffffffffffffff1673ffffffffffffffffffffffffffffffffffffffff16632ef3accc86856040518363ffffffff1660e01b81526004018080602001838152602001828103825284818151815260200191508051906020019080838360005b838110156119d75780820151818401526020810190506119bc565b50505050905090810190601f168015611a045780820380516001836020036101000a031916815260200191505b509350505050602060405180830381600087803b158015611a2457600080fd5b505af1158015611a38573d6000803e3d6000fd5b505050506040513d6020811015611a4e57600080fd5b81019080805190602001909291905050509050823a02670de0b6b3a764000001811115611a81576000801b915050611c27565b6060611a8c85612185565b9050600260019054906101000a900473ffffffffffffffffffffffffffffffffffffffff1673ffffffffffffffffffffffffffffffffffffffff1663c55c1cb68360008985896040518663ffffffff1660e01b8152600401808581526020018060200180602001848152602001838103835286818151815260200191508051906020019080838360005b83811015611b31578082015181840152602081019050611b16565b50505050905090810190601f168015611b5e5780820380516001836020036101000a031916815260200191505b50838103825285818151815260200191508051906020019080838360005b83811015611b97578082015181840152602081019050611b7c565b50505050905090810190601f168015611bc45780820380516001836020036101000a031916815260200191505b5096505050505050506020604051808303818588803b158015611be657600080fd5b505af1158015611bfa573d6000803e3d6000fd5b50505050506040513d6020811015611c1157600080fd5b8101908080519060200190929190505050925050505b9392505050565b600080611c4e731d3b2638a7cc9f2cb3d298a3da7a90b67e5506ed6116ac565b1115611cf057731d3b2638a7cc9f2cb3d298a3da7a90b67e5506ed600360006101000a81548173ffffffffffffffffffffffffffffffffffffffff021916908373ffffffffffffffffffffffffffffffffffffffff160217905550611ce76040518060400160405280600b81526020017f6574685f6d61696e6e6574000000000000000000000000000000000000000000815250612205565b60019050612182565b6000611d0f73c03a2615d5efaf5f49f60b7bb6583eaec212fdf16116ac565b1115611db15773c03a2615d5efaf5f49f60b7bb6583eaec212fdf1600360006101000a81548173ffffffffffffffffffffffffffffffffffffffff021916908373ffffffffffffffffffffffffffffffffffffffff160217905550611da86040518060400160405280600c81526020017f6574685f726f707374656e330000000000000000000000000000000000000000815250612205565b60019050612182565b6000611dd073b7a07bcf2ba2f2703b24c0691b5278999c59ac7e6116ac565b1115611e725773b7a07bcf2ba2f2703b24c0691b5278999c59ac7e600360006101000a81548173ffffffffffffffffffffffffffffffffffffffff021916908373ffffffffffffffffffffffffffffffffffffffff160217905550611e696040518060400160405280600981526020017f6574685f6b6f76616e0000000000000000000000000000000000000000000000815250612205565b60019050612182565b6000611e9173146500cfd35b22e4a392fe0adc06de1a1368ed486116ac565b1115611f335773146500cfd35b22e4a392fe0adc06de1a1368ed48600360006101000a81548173ffffffffffffffffffffffffffffffffffffffff021916908373ffffffffffffffffffffffffffffffffffffffff160217905550611f2a6040518060400160405280600b81526020017f6574685f72696e6b656279000000000000000000000000000000000000000000815250612205565b60019050612182565b6000611f5273a2998efd205fb9d4b4963afb70778d6354ad3a416116ac565b1115611ff45773a2998efd205fb9d4b4963afb70778d6354ad3a41600360006101000a81548173ffffffffffffffffffffffffffffffffffffffff021916908373ffffffffffffffffffffffffffffffffffffffff160217905550611feb6040518060400160405280600a81526020017f6574685f676f65726c6900000000000000000000000000000000000000000000815250612205565b60019050612182565b6000612013736f485c8bf6fc43ea212e93bbf8ce046c7f1cb4756116ac565b111561207757736f485c8bf6fc43ea212e93bbf8ce046c7f1cb475600360006101000a81548173ffffffffffffffffffffffffffffffffffffffff021916908373ffffffffffffffffffffffffffffffffffffffff16021790555060019050612182565b60006120967320e12a1f859b3feae5fb2a0a32c18f5a65555bbf6116ac565b11156120fa577320e12a1f859b3feae5fb2a0a32c18f5a65555bbf600360006101000a81548173ffffffffffffffffffffffffffffffffffffffff021916908373ffffffffffffffffffffffffffffffffffffffff16021790555060019050612182565b60006121197351efaf4c8b3c9afbd5ab9f4bbc82784ab6ef8faa6116ac565b111561217d577351efaf4c8b3c9afbd5ab9f4bbc82784ab6ef8faa600360006101000a81548173ffffffffffffffffffffffffffffffffffffffff021916908373ffffffffffffffffffffffffffffffffffffffff16021790555060019050612182565b600090505b90565b606061218f61221f565b6121976125ff565b6121a38161040061222b565b6121ac81612275565b60008090505b83518110156121ee576121e18482815181106121ca57fe5b60200260200101518361228390919063ffffffff16565b80806001019150506121b2565b506121f8816122a8565b8060000151915050919050565b806004908051906020019061221b929190612619565b5050565b60405180590338823950565b600081905060006020828161223c57fe5b0614612255576020818161224c57fe5b06602003810190505b808360200181815250506040518084526000815281810160405250505050565b6122808160046122b6565b50565b61229082600283516122d7565b6122a3818361241790919063ffffffff16565b505050565b6122b38160076122b6565b50565b6122d3601f60058360ff16901b17836124c290919063ffffffff16565b5050565b60178111612303576122fe8160058460ff16901b60ff1617846124c290919063ffffffff16565b612412565b60ff811161234457612328601860058460ff16901b17846124c290919063ffffffff16565b61233e816001856125029092919063ffffffff16565b50612411565b61ffff81116123865761236a601960058460ff16901b17846124c290919063ffffffff16565b612380816002856125029092919063ffffffff16565b50612410565b63ffffffff81116123ca576123ae601a60058460ff16901b17846124c290919063ffffffff16565b6123c4816004856125029092919063ffffffff16565b5061240f565b67ffffffffffffffff811161240e576123f6601b60058460ff16901b17846124c290919063ffffffff16565b61240c816008856125029092919063ffffffff16565b505b5b5b5b5b505050565b61241f6125ff565b8260200151836000015151835101111561244f5761244e83600261244886602001518651612569565b02612585565b5b60008060008451905085518051602081830101945086518101825260208701935050505b602081106124965781518352602083019250602082019150602081039050612473565b60006001826020036101000a039050801983511681855116818117865250508694505050505092915050565b816020015160018360000151510111156124e8576124e7826002846020015102612585565b5b815180516020818301018381536001820183525050505050565b61250a6125ff565b83602001518460000151518301111561253857612537846002612531876020015186612569565b02612585565b5b60006001836101000a0390508451805184818301018684198251161781528582018352505050849150509392505050565b60008183111561257b5782905061257f565b8190505b92915050565b606082600001519050612598838361222b565b6125a28382612417565b50505050565b6040518060400160405280600073ffffffffffffffffffffffffffffffffffffffff168152602001600081525090565b60405180608001604052806004905b60608152602001906001900390816125e75790505090565b604051806040016040528060608152602001600081525090565b828054600181600116156101000203166002900490600052602060002090601f016020900481019282601f1061265a57805160ff1916838001178555612688565b82800160010185558215612688579182015b8281111561268757825182559160200191906001019061266c565b5b5090506126959190612699565b5090565b6126bb91905b808211156126b757600081600090555060010161269f565b5090565b9056fea265627a7a72315820c0e25f21ee92944f2c6ccf9eaab377e2dd4cadb41c7a2273a89d1ff0fe99d72064736f6c634300050c0032",
  "source": "pragma solidity 0.5.12;\nimport \"./Ownable.sol\";\nimport \"./Testable.sol\";\nimport \"./provableAPI.sol\";\n\ncontract CoinFlip is Ownable, Testable, usingProvable {\n\tuint public contractBalance;\n\n\tstruct Bet {\n\t\taddress player;\n\t\tuint256 value;\n\t}\n\n\tmapping (bytes32 => Bet) private waiting;\n\n\tmodifier betCovered(){\n\t\trequire(msg.value < contractBalance);\n\t\t_;\n\t}\n\n\tmodifier minimumBet(uint bid){\n\t\trequire(msg.value >= bid);\n\t\t_;\n\t}\n\n\tevent flipResult(address player, bool result);\n\n\tfunction flip() public payable minimumBet(1 szabo) betCovered {\n\t\tbytes32 queryId;\n\n\t\tif (testing) {\n\t\t\tqueryId = testRandom();\n\t\t} else {\n\t\t\tqueryId = getRandom();\n\t\t}\n\n\t\tBet memory bet;\n\t\tbet.player = msg.sender;\n\t\tbet.value = msg.value;\n\t\twaiting[queryId] = bet;\n\t}\n\n\tfunction stake() public payable {\n\t\tcontractBalance += msg.value;\n\t}\n\n\tuint256 constant NUM_RANDOM_BYTES_REQUESTED = 1;\n\n\tfunction getRandom() internal returns (bytes32) {\n\t\tuint256 QUERY_EXECUTION_DELAY = 0;\n\t\tuint256 GAS_FOR_CALLBACK = 200000;\n\t\treturn provable_newRandomDSQuery(\n\t\t\tQUERY_EXECUTION_DELAY,\n\t\t\tNUM_RANDOM_BYTES_REQUESTED,\n\t\t\tGAS_FOR_CALLBACK\n\t\t);\n\t}\n\n\tfunction testRandom() internal returns (bytes32) {\n\t\tbytes32 queryId = bytes32(keccak256(abi.encodePacked(msg.sender)));\n\t\tuint rand = block_time() % 2;\n\t\tstring memory result = rand == 1 ? '1' : '0';\n\n\t\t__callback(queryId, result, bytes(abi.encodePacked(msg.sender)));\n\t\treturn queryId;\n\t}\n\n\tfunction __callback(bytes32 _queryId, string memory _result, bytes memory _proof) public {\n\t\tuint256 random = uint256(keccak256(abi.encodePacked(_result))) % 2;\n\t\n\t\tif(random == 1) {\n\t\t\taddress(uint160(waiting[_queryId].player)).transfer(waiting[_queryId].value * 2);\n\t\t\tcontractBalance -= waiting[_queryId].value;\n\t\t} else {\n\t\t\tcontractBalance += waiting[_queryId].value;\n\t\t}\n\n\t\temit flipResult(waiting[_queryId].player, random == 1);\n\t\tdelete waiting[_queryId];\n\t}\n\n\tfunction destroyContract() public onlyOwner{\n\t\tselfdestruct(msg.sender);\n\t}\n}\n",
  "sourcePath": "/Users/smactive/smart_contracts/CoinFlip/ethereum/contracts/CoinFlip.sol",
  "compiler": {
    "name": "solc",
    "version": "0.5.12+commit.7709ece9.Emscripten.clang"
  },
  "schemaVersion": "3.0.16",
  "updatedAt": "2020-09-15T13:21:35.972Z",
  "devdoc": {
    "methods": {
      "__callback(bytes32,string)": {
        "details": "The following `__callback` functions are just placeholders ideally     meant to be defined in child contract when proofs are used.     The function bodies simply silence compiler warnings."
      }
    }
  },
  "userdoc": {
    "methods": {}
  }
}