{
  "contractName": "CoinFlip",
  "abi": [
    {
      "anonymous": false,
      "inputs": [
        {
          "indexed": false,
          "internalType": "address",
          "name": "player",
          "type": "address"
        },
        {
          "indexed": false,
          "internalType": "bool",
          "name": "result",
          "type": "bool"
        }
      ],
      "name": "flipResult",
      "type": "event"
    },
    {
      "constant": true,
      "inputs": [],
      "name": "contractBalance",
      "outputs": [
        {
          "internalType": "uint256",
          "name": "",
          "type": "uint256"
        }
      ],
      "payable": false,
      "stateMutability": "view",
      "type": "function"
    },
    {
      "constant": false,
      "inputs": [
        {
          "internalType": "uint256",
          "name": "mocked_time",
          "type": "uint256"
        }
      ],
      "name": "freeze_time",
      "outputs": [],
      "payable": false,
      "stateMutability": "nonpayable",
      "type": "function"
    },
    {
      "constant": true,
      "inputs": [],
      "name": "owner",
      "outputs": [
        {
          "internalType": "address",
          "name": "",
          "type": "address"
        }
      ],
      "payable": false,
      "stateMutability": "view",
      "type": "function"
    },
    {
      "constant": false,
      "inputs": [],
      "name": "unfreeze_time",
      "outputs": [],
      "payable": false,
      "stateMutability": "nonpayable",
      "type": "function"
    },
    {
      "constant": false,
      "inputs": [],
      "name": "flip",
      "outputs": [],
      "payable": true,
      "stateMutability": "payable",
      "type": "function"
    },
    {
      "constant": false,
      "inputs": [],
      "name": "stake",
      "outputs": [],
      "payable": true,
      "stateMutability": "payable",
      "type": "function"
    }
  ],
  "bytecode": "0x6080604052336000806101000a81548173ffffffffffffffffffffffffffffffffffffffff021916908373ffffffffffffffffffffffffffffffffffffffff160217905550610424806100536000396000f3fe6080604052600436106100555760003560e01c80633a4b66f11461005a5780638b7afe2e146100645780638da5cb5b1461008f578063c5929831146100e6578063c809099914610121578063cde4efa914610138575b600080fd5b610062610142565b005b34801561007057600080fd5b506100796101a1565b6040518082815260200191505060405180910390f35b34801561009b57600080fd5b506100a46101a7565b604051808273ffffffffffffffffffffffffffffffffffffffff1673ffffffffffffffffffffffffffffffffffffffff16815260200191505060405180910390f35b3480156100f257600080fd5b5061011f6004803603602081101561010957600080fd5b81019080803590602001909291905050506101cc565b005b34801561012d57600080fd5b5061013661022f565b005b610140610292565b005b3460026000828254019250508190555034600360003373ffffffffffffffffffffffffffffffffffffffff1673ffffffffffffffffffffffffffffffffffffffff16815260200190815260200160002060008282540192505081905550565b60025481565b6000809054906101000a900473ffffffffffffffffffffffffffffffffffffffff1681565b6000809054906101000a900473ffffffffffffffffffffffffffffffffffffffff1673ffffffffffffffffffffffffffffffffffffffff163373ffffffffffffffffffffffffffffffffffffffff161461022557600080fd5b8060018190555050565b6000809054906101000a900473ffffffffffffffffffffffffffffffffffffffff1673ffffffffffffffffffffffffffffffffffffffff163373ffffffffffffffffffffffffffffffffffffffff161461028857600080fd5b6000600181905550565b64e8d4a51000803410156102a557600080fd5b60025434106102b357600080fd5b600060026102bf6103d5565b816102c657fe5b069050600181141561034e5760006002340290506000606460018302816102e957fe5b0490503373ffffffffffffffffffffffffffffffffffffffff166108fc8284039081150290604051600060405180830381858888f19350505050158015610334573d6000803e3d6000fd5b50803403600260008282540392505081905550505061035f565b346002600082825401925050819055505b7fc212ccd4f44e3c5bfbcc44b7b2f61ff2089badd041c6c98b2acdecfeff1b116b3360018314604051808373ffffffffffffffffffffffffffffffffffffffff1673ffffffffffffffffffffffffffffffffffffffff168152602001821515151581526020019250505060405180910390a15050565b600080600154116103e657426103ea565b6001545b90509056fea265627a7a72315820d5e394c56a9063d1b940323bc6ac223ab73f97a2c525b5ebf3fba6c0a377d35c64736f6c634300050c0032",
  "source": "pragma solidity 0.5.12;\nimport \"./Testable.sol\";\n\ncontract CoinFlip is Testable {\n\tuint public contractBalance;\n\n\tmapping (address => uint) private stakings;\n\n\tmodifier betCovered(){\n\t\trequire(msg.value < contractBalance);\n\t\t_;\n\t}\n\n\tmodifier minimumBet(uint bid){\n\t\trequire(msg.value >= bid);\n\t\t_;\n\t}\n\n    event flipResult(address player, bool result);\n\n\tfunction flip() public payable minimumBet(1 szabo) betCovered {\n\t\tuint winning = block_time() % 2;\n\t\tif(winning == 1) {\n\t\t\tuint total = (msg.value * 2);\n\t\t\tuint house = (total * 1) / 100;\n\n\t\t\tmsg.sender.transfer(total - house);\n\t\t\tcontractBalance -= (msg.value - house);\n\t\t} else {\n\t\t\tcontractBalance += msg.value;\n\t\t}\n\t\temit flipResult(msg.sender, winning == 1);\n\t}\n\n\tfunction stake() public payable {\n\t\tcontractBalance += msg.value;\n\t\tstakings[msg.sender] += msg.value;\n\t}\n}\n",
  "sourcePath": "/Users/smactive/smart_contracts/CoinFlip/ethereum/contracts/CoinFlip.sol",
  "compiler": {
    "name": "solc",
    "version": "0.5.12+commit.7709ece9.Emscripten.clang"
  },
  "schemaVersion": "3.0.16",
  "updatedAt": "2020-09-06T03:16:41.750Z",
  "devdoc": {
    "methods": {}
  },
  "userdoc": {
    "methods": {}
  }
}