{
  "contractName": "Ownable",
  "abi": [
    {
      "inputs": [],
      "payable": false,
      "stateMutability": "nonpayable",
      "type": "constructor"
    },
    {
      "constant": true,
      "inputs": [],
      "name": "owner",
      "outputs": [
        {
          "internalType": "address",
          "name": "",
          "type": "address"
        }
      ],
      "payable": false,
      "stateMutability": "view",
      "type": "function"
    }
  ],
  "bytecode": "0x608060405234801561001057600080fd5b50336000806101000a81548173ffffffffffffffffffffffffffffffffffffffff021916908373ffffffffffffffffffffffffffffffffffffffff16021790555060cf8061005f6000396000f3fe6080604052348015600f57600080fd5b506004361060285760003560e01c80638da5cb5b14602d575b600080fd5b60336075565b604051808273ffffffffffffffffffffffffffffffffffffffff1673ffffffffffffffffffffffffffffffffffffffff16815260200191505060405180910390f35b6000809054906101000a900473ffffffffffffffffffffffffffffffffffffffff168156fea265627a7a7231582068f9e3ed50a6f3d83f1b68e2e03c24692d18b5ffe8b3dc4168aa3bec3184bf9864736f6c634300050c0032",
  "source": "pragma solidity 0.5.12;\n\ncontract Ownable {\n    address public owner;\n\n    constructor() public{\n        owner = msg.sender;\n    }\n\n    modifier onlyOwner(){\n        require(msg.sender == owner);\n        _;\n    }\n}\n",
  "sourcePath": "/Users/smactive/smart_contracts/CoinFlip/ethereum/contracts/Ownable.sol",
  "compiler": {
    "name": "solc",
    "version": "0.5.12+commit.7709ece9.Emscripten.clang"
  },
  "schemaVersion": "3.0.16",
  "updatedAt": "2020-09-06T01:50:47.729Z",
  "devdoc": {
    "methods": {}
  },
  "userdoc": {
    "methods": {}
  }
}