{
  "contractName": "Testable",
  "abi": [
    {
      "constant": false,
      "inputs": [
        {
          "internalType": "uint256",
          "name": "mocked_time",
          "type": "uint256"
        }
      ],
      "name": "freeze_time",
      "outputs": [],
      "payable": false,
      "stateMutability": "nonpayable",
      "type": "function"
    },
    {
      "constant": false,
      "inputs": [],
      "name": "unfreeze_time",
      "outputs": [],
      "payable": false,
      "stateMutability": "nonpayable",
      "type": "function"
    },
    {
      "constant": false,
      "inputs": [],
      "name": "test_mode",
      "outputs": [],
      "payable": false,
      "stateMutability": "nonpayable",
      "type": "function"
    }
  ],
  "bytecode": "0x608060405234801561001057600080fd5b5060e08061001f6000396000f3fe6080604052348015600f57600080fd5b5060043610603c5760003560e01c8063c2000d59146041578063c5929831146049578063c8090999146074575b600080fd5b6047607c565b005b607260048036036020811015605d57600080fd5b81019080803590602001909291905050506098565b005b607a60a2565b005b60018060006101000a81548160ff021916908315150217905550565b8060008190555050565b6000808190555056fea265627a7a72315820a45286b91560d3528f5234892111bc905b4b5364d2d9c3cdb55531727c21cea564736f6c634300050c0032",
  "source": "pragma solidity 0.5.12;\n\ncontract Testable {\n\t// Mock tests\n\t// This is not safe at all and would not be used in production code.\n\t// Newer EVM versions support chain_id() method so I could update this to assert onlyGanache\n\tuint private mock_time;\n\tbool internal testing;\n\n\tfunction block_time() internal view returns(uint){\n\t\treturn mock_time > 0 ? mock_time : now;\n\t}\n\n\tfunction freeze_time(uint mocked_time) public{\n\t\tmock_time = mocked_time;\n\t}\n\n\tfunction unfreeze_time() public{\n\t\tmock_time = 0;\n\t}\n\n\tfunction test_mode() public{\n\t\ttesting = true;\n\t}\n}\n",
  "sourcePath": "/Users/smactive/smart_contracts/CoinFlip/ethereum/contracts/Testable.sol",
  "compiler": {
    "name": "solc",
    "version": "0.5.12+commit.7709ece9.Emscripten.clang"
  },
  "schemaVersion": "3.0.16",
  "updatedAt": "2020-09-15T13:21:33.383Z",
  "devdoc": {
    "methods": {}
  },
  "userdoc": {
    "methods": {}
  }
}