{
  "contractName": "Testable",
  "abi": [
    {
      "constant": true,
      "inputs": [],
      "name": "owner",
      "outputs": [
        {
          "internalType": "address",
          "name": "",
          "type": "address"
        }
      ],
      "payable": false,
      "stateMutability": "view",
      "type": "function"
    },
    {
      "constant": false,
      "inputs": [
        {
          "internalType": "uint256",
          "name": "mocked_time",
          "type": "uint256"
        }
      ],
      "name": "freeze_time",
      "outputs": [],
      "payable": false,
      "stateMutability": "nonpayable",
      "type": "function"
    },
    {
      "constant": false,
      "inputs": [],
      "name": "unfreeze_time",
      "outputs": [],
      "payable": false,
      "stateMutability": "nonpayable",
      "type": "function"
    }
  ],
  "bytecode": "0x6080604052336000806101000a81548173ffffffffffffffffffffffffffffffffffffffff021916908373ffffffffffffffffffffffffffffffffffffffff1602179055506101e8806100536000396000f3fe608060405234801561001057600080fd5b50600436106100415760003560e01c80638da5cb5b14610046578063c592983114610090578063c8090999146100be575b600080fd5b61004e6100c8565b604051808273ffffffffffffffffffffffffffffffffffffffff1673ffffffffffffffffffffffffffffffffffffffff16815260200191505060405180910390f35b6100bc600480360360208110156100a657600080fd5b81019080803590602001909291905050506100ed565b005b6100c6610150565b005b6000809054906101000a900473ffffffffffffffffffffffffffffffffffffffff1681565b6000809054906101000a900473ffffffffffffffffffffffffffffffffffffffff1673ffffffffffffffffffffffffffffffffffffffff163373ffffffffffffffffffffffffffffffffffffffff161461014657600080fd5b8060018190555050565b6000809054906101000a900473ffffffffffffffffffffffffffffffffffffffff1673ffffffffffffffffffffffffffffffffffffffff163373ffffffffffffffffffffffffffffffffffffffff16146101a957600080fd5b600060018190555056fea265627a7a72315820569f87c9f195a0dff5b2b996c8a3d25499606148a2106367a0e0beed4ffe479f64736f6c634300050c0032",
  "source": "pragma solidity 0.5.12;\nimport \"./Ownable.sol\";\n\ncontract Testable is Ownable{\n\t// Mock tests\n\tuint private mock_time;\n\n\tfunction block_time() internal view returns(uint){\n\t\treturn mock_time > 0 ? mock_time : now;\n\t}\n\n\t// This should be onlyTestEnv but I couldn't figure out how to restrict to ganache network\n\tfunction freeze_time(uint mocked_time) public onlyOwner{\n\t\tmock_time = mocked_time;\n\t}\n\n\tfunction unfreeze_time() public onlyOwner{\n\t\tmock_time = 0;\n\t}\n}",
  "sourcePath": "/Users/smactive/smart_contracts/CoinFlip/ethereum/contracts/Testable.sol",
  "compiler": {
    "name": "solc",
    "version": "0.5.12+commit.7709ece9.Emscripten.clang"
  },
  "schemaVersion": "3.0.16",
  "updatedAt": "2020-09-06T01:50:47.731Z",
  "devdoc": {
    "methods": {}
  },
  "userdoc": {
    "methods": {}
  }
}